:020000040000FA
:0600000078EF02F012008F
:0A0006000100400500001204000094
:0400100002000000EA
:0C001400020EE66E94EC02F0E5521200C1
:100020005FD870EF00F0500E56D8500E54D8500ED6
:100030006BEF00F053EC02F01AD834D80F0EE66ED6
:100040007CEC01F0E5523DEC02F0000901E0FBD749
:100050000B0EE66E040EE66E05EC02F0E552E5527C
:100060003DEC02F0000901E0FBD70300120004019F
:10007000126B136B070ED8801255000E135511E347
:1000800062EC02F0E66E0B0E04011225E96E040E1E
:100090001321EA6EE552E750EF6E122B000E132388
:1000A000E9D71200836A956A280EE66EC4EC00F068
:1000B000E5523DEC02F00009FCE1E66A11EC01F0CA
:1000C000E552060EE66E7CEC01F0E5523DEC02F0E6
:1000D0000009FCE11200E66E86EC02F0E552120027
:0A00E000A00EF9DFA00E6BEF00F098
:0600EA00060EF66E000E8A
:1000F000F76E000EF86E04010900F550066F090056
:10010000F550076F03E1066701D03DD00900F550B7
:10011000016F0900F550026F0900F550036F0900E7
:100120000900F550E96E0900F550EA6E0900090072
:100130000900F550046F0900F550056F090009002A
:10014000F6CF08F4F7CF09F4F8CF0AF401C4F6FFAC
:1001500002C4F7FF03C4F8FF0401045302E105538E
:1001600007E00900F550EE6E0407F8E20507F9D73D
:1001700008C4F6FF09C4F7FF0AC4F8FF0401060724
:08018000000E075BBFD712005F
:08018800D9CFE6FFE1CFD9FF5A
:100190000F0E831695169594959295908C948C924B
:1001A0008C9010EC00F0300E33D8050EE66E26EC85
:1001B00002F0E552300E2CD8010EE66E26EC02F06D
:1001C000E552320E25D829D8FEE127D8FEE1FE0EF1
:1001D000DBCFE6FF7CEC01F0E5521FD8FEE1080E14
:1001E00017D81BD8FEE10F0E13D817D8FEE1010E69
:1001F0000FD813D8FEE1040E0BD80FD8FEE1800E05
:10020000E66E11EC01F0E552E552E7CFD9FF12009E
:10021000E66E7CEC01F0E55212003DEC02F00009C4
:020220001200CA
:0E022200D9CFE6FFE1CFD9FF0F0E9516831658
:10023000FE0EDB508009F00B83128C948C920ED84A
:100240000F0E8316FE0EDB38F00BF00B831206D870
:10025000F00E9512E552E7CFD9FF12000AEC00F03C
:0A0260008C800AEC00F08C90120074
:06026A00D9CFE6FFE1CF51
:10027000D9FF0F0E95168316FE0EDB504009F00BCA
:1002800083128C948C920ED80F0E8316FE0EDB38E0
:10029000F00BF00B831206D8F00E9512E552E7CF63
:1002A000D9FF12000AEC00F08C800AEC00F08C9070
:0202B00012003A
:0E02B200D9CFE6FFE1CFD9FF0F0E95168316C8
:1002C000FE0EDB50F00B83128C828C940ED80F0E36
:1002D0008316FE0EDB38F00BF00B831206D8F00EFF
:1002E0009512E552E7CFD9FF12000AEC00F08C809E
:0802F0000AEC00F08C901200F2
:0802F800D9CFE6FFE1CFD9FFE9
:100300000F0E95168316FE0EDB50F00B83128C94A5
:100310008C920ED80F0E8316FE0EDB38F00BF00B0E
:10032000831206D8F00E9512E552E7CFD9FF1200DE
:0E0330000AEC00F08C800AEC00F08C901200B9
:02033E00D9CF15
:10034000E6FFE1CFD9FFE6528C848C820AEC00F004
:100350008C800AEC00F0F00E8314DF6E8C900AECB7
:1003600000F08C800AEC00F083380F0B0F0BDF12CB
:100370008C908C928C94DF50E552E552E7CFD9FFF8
:02038000120069
:0E038200D9CFE6FFE1CFD9FFE6528C848C92F2
:100390000AEC00F08C800AEC00F0F00E8314DF6EA3
:1003A0008C900AEC00F08C800AEC00F083380F0B84
:1003B0000F0BDF128C908C947F0EDF14E552E55208
:0603C000E7CFD9FF120097
:0A03C600D9CFE6FFE1CFD9FF14D82C
:1003D0000FE03DEC02F00009FCE10ED8E66E59ECAE
:1003E00001F0E552FD0EDB2AFE0EF1E3DB2AEFD72A
:1003F000E552E7CFD9FF1200FD0EDBCFF6FFFE0E70
:0A040000DBCFF7FF0800F5501200F3
:06040A00D9CFE6FFE1CFAF
:10041000D9FF14D80FE03DEC02F00009FCE10ED842
:10042000E66E59EC01F0E552FD0EDB2AFE0EF1E31B
:10043000DB2AEFD7E552E7CFD9FF1200FD0EDBCF65
:0C044000E9FFFE0EDBCFEAFFEF501200D8
:04044C00FF0EE3506C
:10045000036EEF0E01D0F30EE76EE72E2DEF02F0E4
:100460000C0E026EE76AE72E33EF02F0022E32EF37
:0A04700002F0032E2BEF02F0120041
:06047A008C848C920AEC58
:1004800000F08C800AEC00F083AE02D003D8010C9F
:1004900001D8000C8C900AEC00F08C800AEC00F083
:0604A0008C908C94120008
:0A04A600500E906F750E916F730EEB
:1004B000926F680E936F700E946F6F0E956F700E43
:1004C000966F120000EE90F01251E926EF501200E4
:1004D000000EF36E00EE00F0060E01D81200EA6086
:1004E00002D0EE6AFCD7F350E9601200EE6AFCD746
:1004F00013EE81F023EE81F0F86A019C75EC00F0B8
:0C0500009FEC02F01AEC00F0FBD7120098
:04050C00FF0EE350AB
:10051000036E1B0E00D001D0200EE76EE72EFED733
:08052000032EFAD700D01200EF
:08052800FF0EE350E84E120043
:0E053000000000D000D000D0E82EFAD7120054
:02053E001200A9
:020540000000B9
:020000040030CA
:0100010022DC
:010003000EEE
:010006008178
:00000001FF
